:020000040000FA
:100000000000BE2883168601033085008312860116
:100010008501AE010518AE0A2E08AF0003191D2890
:100020002E08013A031D25287030AE001730AF00AE
:10003000E830B0000330B1002528E830AE000330CE
:10004000AF009030B0000130B100300899003108A5
:100050009A002E089B002F082F2025280800A900B1
:10006000A5001B08A800A4001A08A7001908A600EC
:10007000831286178515061486150030A91BFF30DC
:10008000AB00AA002808990029089A002A089B00BA
:100090002B088520831286148613061706168611F0
:1000A0002608A4002708A5000030A51BFF30AD00DE
:1000B000AC002408990025089A002C089B002D0804
:1000C00085208312061385118616051506108610E5
:1000D00006152808990029089A002A089B002B0871
:1000E000852083120611861406170511851524082C
:1000F000990025089A002C089B002D088520831262
:10010000861006130612861208009F001B089E0028
:100110001A089D0019089C001C08A0001D08A100D9
:100120001E08A2001F08A300FF309C07FF30031C1D
:100130009D07FF30031C9E07FF30031C9F0720080C
:100140002104220423040319BD282C30A00001300F
:10015000A100A201A301FF30A007FF30031CA107EB
:10016000FF30031CA207FF30031CA3072008210453
:1001700022042304031DAB288C28080086309A0033
:1001800001309B008030000000006521000000006D
:1001900083120000B3001B08B2008830B4000130A5
:1001A000B500831200003208B6003308B700FF30F4
:1001B000B207031CB3033608370403194E29043071
:1001C0003407B600B701B70D3508B70736089A00EF
:1001D00037089B008030000000006521000000000F
:1001E00083120000B9001B08B80034089A003508D3
:1001F0009B00803000000000652100000000831299
:100200000000BB00B7001B08BA00B600023034077C
:10021000B600B701B70D3508B70736089A0037089A
:100220009B00803000000000652100000000831268
:100230000000B700BD001B08B600BC008312000020
:100240003808BC003908BD00FF30B807031CB903EB
:100250003C083D04031947293A089A003B089B00D3
:1002600080300000000052210000000083120000D6
:10027000BC00360884008313371883173C088000BD
:10028000BA0A0319BB0AB60A0319B70A1E290630AF
:1002900083120000B4070318B50AD128000000003B
:1002A00002280800003A03195929803A03196029E5
:1002B00000341A08840083131B18831700080800F1
:1002C0001B088A001A0882000800003A03196D29E9
:1002D000803A031977299B0100341A08840083139C
:1002E0001B18831700089B00840A00080800000000
:1002F0000000602199009A0F9B039B0A00000000F8
:100300006021980019089B00180808000134003487
:0E0310008E3401343E340034013400340034A5
:02400E00F13F80
:00000001FF
